{
	"data": {
		"bytecode": {
			"linkReferences": {},
			"object": "610117610026600b82828239805160001a60731461001957fe5b30600052607381538281f3fe7300000000000000000000000000000000000000003014608060405260043610603d5760003560e01c80637987105f14604257806394d5e89d14605e575b600080fd5b60486099565b6040518082815260200191505060405180910390f35b606460bd565b60405180827bffffffffffffffffffffffffffffffffffffffffffffffffffffffff1916815260200191505060405180910390f35b7ff64326045af5fd7e15297ba939f85b550474d3899daa47d2bc1ffbdb9ced344e81565b7fd8f960c1450658267efb07308b4050c9e705cea25a53b560236c88cb149696be8156fea26469706673582212204be8ca5e5550c642c228684eb1b1130b2adc642828c05a599783123727d6fd3364736f6c63430007060033",
			"opcodes": "PUSH2 0x117 PUSH2 0x26 PUSH1 0xB DUP3 DUP3 DUP3 CODECOPY DUP1 MLOAD PUSH1 0x0 BYTE PUSH1 0x73 EQ PUSH2 0x19 JUMPI INVALID JUMPDEST ADDRESS PUSH1 0x0 MSTORE PUSH1 0x73 DUP2 MSTORE8 DUP3 DUP2 RETURN INVALID PUSH20 0x0 ADDRESS EQ PUSH1 0x80 PUSH1 0x40 MSTORE PUSH1 0x4 CALLDATASIZE LT PUSH1 0x3D JUMPI PUSH1 0x0 CALLDATALOAD PUSH1 0xE0 SHR DUP1 PUSH4 0x7987105F EQ PUSH1 0x42 JUMPI DUP1 PUSH4 0x94D5E89D EQ PUSH1 0x5E JUMPI JUMPDEST PUSH1 0x0 DUP1 REVERT JUMPDEST PUSH1 0x48 PUSH1 0x99 JUMP JUMPDEST PUSH1 0x40 MLOAD DUP1 DUP3 DUP2 MSTORE PUSH1 0x20 ADD SWAP2 POP POP PUSH1 0x40 MLOAD DUP1 SWAP2 SUB SWAP1 RETURN JUMPDEST PUSH1 0x64 PUSH1 0xBD JUMP JUMPDEST PUSH1 0x40 MLOAD DUP1 DUP3 PUSH28 0xFFFFFFFFFFFFFFFFFFFFFFFFFFFFFFFFFFFFFFFFFFFFFFFFFFFFFFFF NOT AND DUP2 MSTORE PUSH1 0x20 ADD SWAP2 POP POP PUSH1 0x40 MLOAD DUP1 SWAP2 SUB SWAP1 RETURN JUMPDEST PUSH32 0xF64326045AF5FD7E15297BA939F85B550474D3899DAA47D2BC1FFBDB9CED344E DUP2 JUMP JUMPDEST PUSH32 0xD8F960C1450658267EFB07308B4050C9E705CEA25A53B560236C88CB149696BE DUP2 JUMP INVALID LOG2 PUSH5 0x6970667358 0x22 SLT KECCAK256 0x4B 0xE8 0xCA 0x5E SSTORE POP 0xC6 TIMESTAMP 0xC2 0x28 PUSH9 0x4EB1B1130B2ADC6428 0x28 0xC0 GAS MSIZE SWAP8 DUP4 SLT CALLDATACOPY 0x27 0xD6 REVERT CALLER PUSH5 0x736F6C6343 STOP SMOD MOD STOP CALLER "
		},
		"gasEstimates": {
			"creation": {
				"codeDepositCost": "55800",
				"executionCost": "133",
				"totalCost": "55933"
			},
			"external": {
				"ERC721_LAZY_ASSET_CLASS()": "198",
				"MINT_AND_TRANSFER_TYPEHASH()": "167"
			},
			"internal": {
				"hash(struct LibERC721LazyMint.Mint721Data memory)": "infinite"
			}
		},
		"methodIdentifiers": {
			"ERC721_LAZY_ASSET_CLASS()": "94d5e89d",
			"MINT_AND_TRANSFER_TYPEHASH()": "7987105f"
		}
	},
	"abi": [
		{
			"inputs": [],
			"name": "ERC721_LAZY_ASSET_CLASS",
			"outputs": [
				{
					"internalType": "bytes4",
					"name": "",
					"type": "bytes4"
				}
			],
			"stateMutability": "view",
			"type": "function"
		},
		{
			"inputs": [],
			"name": "MINT_AND_TRANSFER_TYPEHASH",
			"outputs": [
				{
					"internalType": "bytes32",
					"name": "",
					"type": "bytes32"
				}
			],
			"stateMutability": "view",
			"type": "function"
		}
	]
}