{
	"data": {
		"bytecode": {
			"linkReferences": {},
			"object": "60ae610024600b82828239805160001a607314601757fe5b30600052607381538281f3fe730000000000000000000000000000000000000000301460806040526004361060335760003560e01c806364d4c819146038575b600080fd5b603e6054565b6040518082815260200191505060405180910390f35b7f397e04204c1e1a60ee8724b71f8244e10ab5f2e9009854d80f602bda21b59ebb8156fea2646970667358221220e5f7fc0dcb672732327a808ba3626bf77192ef06cc5a893e31ac78b9d74db05264736f6c63430007060033",
			"opcodes": "PUSH1 0xAE PUSH2 0x24 PUSH1 0xB DUP3 DUP3 DUP3 CODECOPY DUP1 MLOAD PUSH1 0x0 BYTE PUSH1 0x73 EQ PUSH1 0x17 JUMPI INVALID JUMPDEST ADDRESS PUSH1 0x0 MSTORE PUSH1 0x73 DUP2 MSTORE8 DUP3 DUP2 RETURN INVALID PUSH20 0x0 ADDRESS EQ PUSH1 0x80 PUSH1 0x40 MSTORE PUSH1 0x4 CALLDATASIZE LT PUSH1 0x33 JUMPI PUSH1 0x0 CALLDATALOAD PUSH1 0xE0 SHR DUP1 PUSH4 0x64D4C819 EQ PUSH1 0x38 JUMPI JUMPDEST PUSH1 0x0 DUP1 REVERT JUMPDEST PUSH1 0x3E PUSH1 0x54 JUMP JUMPDEST PUSH1 0x40 MLOAD DUP1 DUP3 DUP2 MSTORE PUSH1 0x20 ADD SWAP2 POP POP PUSH1 0x40 MLOAD DUP1 SWAP2 SUB SWAP1 RETURN JUMPDEST PUSH32 0x397E04204C1E1A60EE8724B71F8244E10AB5F2E9009854D80F602BDA21B59EBB DUP2 JUMP INVALID LOG2 PUSH5 0x6970667358 0x22 SLT KECCAK256 0xE5 0xF7 0xFC 0xD 0xCB PUSH8 0x2732327A808BA362 PUSH12 0xF77192EF06CC5A893E31AC78 0xB9 0xD7 0x4D 0xB0 MSTORE PUSH5 0x736F6C6343 STOP SMOD MOD STOP CALLER "
		},
		"gasEstimates": {
			"creation": {
				"codeDepositCost": "34800",
				"executionCost": "112",
				"totalCost": "34912"
			},
			"external": {
				"TYPE_HASH()": "167"
			},
			"internal": {
				"hash(struct LibPart.Part memory)": "infinite"
			}
		},
		"methodIdentifiers": {
			"TYPE_HASH()": "64d4c819"
		}
	},
	"abi": [
		{
			"inputs": [],
			"name": "TYPE_HASH",
			"outputs": [
				{
					"internalType": "bytes32",
					"name": "",
					"type": "bytes32"
				}
			],
			"stateMutability": "view",
			"type": "function"
		}
	]
}